:020000040800F2
:10000000B8060020CD010008370E0008D30D000807
:10001000350E0008D3020008390F00080000000068
:100020000000000000000000000000003B0E00087F
:10003000D502000800000000390E00083D0E00083F
:10004000E7010008E7010008E7010008E7010008F0
:10005000E7010008E7010008E7010008E7010008E0
:10006000E7010008E7010008E7010008E7010008D0
:10007000E7010008E7010008E7010008E7010008C0
:10008000E7010008E7010008E7010008E7010008B0
:10009000E7010008E7010008E7010008E7010008A0
:1000A000E7010008A10E0008E7010008E7010008C9
:1000B000E7010008E7010008E7010008E701000880
:1000C000E7010008E7010008E7010008E701000870
:1000D000E7010008E7010008E7010008E701000860
:1000E000E7010008E7010008E7010008E701000850
:1000F000E7010008E7010008E7010008E701000840
:10010000E7010008E7010008E7010008E70100082F
:10011000E7010008E7010008E7010008E70100081F
:10012000E7010008E7010008E7010008E70100080F
:1001300000F002F800F03AF80AA090E8000C8244BF
:100140008344AAF10107DA4501D100F02FF8AFF29C
:10015000090EBAE80F0013F0010F18BFFB1A43F0A5
:10016000010318474C0E00006C0E0000103A24BF2B
:1001700078C878C1FAD8520724BF30C830C144BF0C
:1001800004680C607047000000230024002500264E
:10019000103A28BF78C1FBD8520728BF30C148BFEA
:1001A0000B6070471FB51FBD10B510BD00F058F8AB
:1001B0001146FFF7F7FF00F0D1FE00F076F803B428
:1001C000FFF7F2FF03BC00F07DF80000094880470C
:1001D00009480047FEE7FEE7FEE7FEE7FEE7FEE729
:1001E000FEE7FEE7FEE7FEE704480549054A064B41
:1001F000704700009D0E000831010008B800002083
:10020000B8060020B8020020B80200204FF000021B
:1002100000B5134694469646203922BFA0E80C50FC
:10022000A0E80C50B1F12001BFF4F7AF090728BFD7
:10023000A0E80C5048BF0CC05DF804EB890028BF53
:1002400040F8042B08BF704748BF20F8022B11F07C
:10025000804F18BF00F8012B7047704770477047F8
:10026000754600F02BF8AE4605006946534620F06F
:100270000700854618B020B5FFF7B6FFBDE820405F
:100280004FF000064FF000074FF000084FF0000B52
:1002900021F00701AC46ACE8C009ACE8C009ACE805
:1002A000C009ACE8C0098D46704710B50446AFF3ED
:1002B00000802046BDE81040FFF781BF004870472E
:1002C0005800002001491820ABBEFEE726000200BE
:1002D0007047FEE77047000070B5044600F012F961
:1002E0000546601C02D004480078044400F00AF976
:1002F000401BA042FAD370BD000000202DE9F84F4A
:10030000DFF8C8910024A9F1040B23460F2709F157
:10031000040AABF1040ED1E00125A54006EA05026E
:10032000AA4276D1DFF8A8C14E68A6EB0C08664554
:100330002BD00DDC032E34D005DC36B3012E19D0C2
:10034000022E2FD11BE0112E16D0122E2AD119E029
:10035000B8F5881F19D006DCB8F5803F15D0B8F580
:10036000801F1FD111E0B8F5001F0ED0B8F5041F93
:1003700018D10AE0CB6815E0CB681B1D12E0CB68F2
:1003800008330FE0CB680C330CE08B682BB1012BEA
:100390004FF0080303D0456104E0042302E0056147
:1003A00000E00023FF2A01D8064601E000F1040620
:1003B0004FEA840501D9A5F12005D6F8008007FA97
:1003C00005FC28EA0C0803FA05F548EA0508C6F812
:1003D00000804D68ED0070D53E4DAE6946F00106D7
:1003E000AE61AD6924F0030605F0010500953A4DB4
:1003F00006EB050CDCF80850A607360F07FA06F8DE
:1004000025EA0805DFF8D480404503D14FF0000805
:1004100025E052E0DFF8C880404502D14FF00108E6
:100420001DE0DFF8C080404502D14FF0020816E021
:10043000DFF8B480404502D14FF003080FE0DFF849
:10044000AC80404502D14FF0040808E0DFF8A080FE
:10045000404502D14FF0050801E04FF0060808FAC8
:1004600006F848EA0508CCF808804D68D9F800601D
:10047000ED024D4601D5164300E096432E604D68CF
:10048000DAF80060AD02554601D5164300E0964308
:100490002E604D68DBF80060AD035D4601D5164364
:1004A00000E096432E604D68DEF80060ED0375466F
:1004B00001D5164300E096432E60641C0A68164678
:1004C000E2407FF429AFBDE8F88F00000804014046
:1004D000000011100010024000000140000801401F
:1004E000000C0140001001400014014000180140C0
:1004F000001C0140C26821EA02030A4043EA0241AB
:1005000001617047014880687047000000000020CA
:100510000248816802781144816070470000002021
:10052000074810B5016841F010010160032000F098
:100530009BF80F2000F006F800F04AF8002010BDEC
:100540000020024030B505461C4887B0816941F45F
:1005500000618161806906A900F40060009001A833
:1005600000F02AF900F048F91549164AB0FBF1F1FC
:100570001548491E0260416040F2E7320021C0E99F
:1005800003218160816100F0FFFA040012D10E485E
:1005900000F028FB04000DD1192000F037F8102DD1
:1005A00007D200222946192000F03EF807480560CE
:1005B00000E0012407B0204630BD000000100240DA
:1005C00040420F00002C01401000002004000020D9
:1005D0000C4808B5816941F001018161816901F030
:1005E00001010091C16941F08051C161C06900F011
:1005F000805000900448416821F0E06141F0806142
:10060000416008BD0010024000000140002809DBE5
:1006100000F01F02012191404009800000F1E0201C
:10062000C0F8001170470000F0B40E4B1B680C4678
:10063000C3F30223C3F10705042D00D90425191DB6
:10064000072901D2002300E0DB1E012606FA05F18E
:10065000491E214099409E40761E16403143F0BC11
:1006600000F06BBC0CED00E0064900F007020868E2
:100670004FF6FF03184040EA0220034A1043086087
:10068000704700000CED00E00000FA052DE9F0478E
:100690000F46050061D0434E306800F00700B842B5
:1006A00009D2306820F0070038433060306800F02D
:1006B0000700B84251D128683B4C810712D540074A
:1006C00003D5606840F4E06060602878000703D5D7
:1006D000606840F4605060606068A96820F0F000D5
:1006E000084360602878C00728D06868012810D0C7
:1006F0002168022810D0890700292EDA616821F0CC
:10070000030101436160FFF7FDFE804641F2883935
:100710000DE021688903EFE78901EDE7FFF7F2FEBD
:10072000A0EB0801494502D90320BDE8F0876068C5
:10073000696800F00C00B0EB810FEFD1306800F079
:100740000700B8420BD9306820F00700384330600A
:10075000306800F00700B84201D00120E5E72878B2
:10076000400705D56068E96820F4E06008436060F0
:100770002878000706D56068296920F4605040EAAF
:10078000C100606000F048F86168084AC1F30311D5
:10079000515CC8400649086006480068FFF7D2FE71
:1007A0000020C2E70020024000100240960F00081F
:1007B0000C000020040000200F2202600C4A536845
:1007C00003F003034360536803F0F003836053684E
:1007D00003F4E063C36052684FF4E06303EAD202BB
:1007E00002610448006800F00700086070470000DC
:1007F0000010024000200240044805490068496892
:10080000044AC1F3C221515CC84070470C0000206B
:1008100000100240A60F00080E4A51680E4801F071
:100820000C03042B11D0082B0FD10C48C1F38343C8
:10083000C903C05C0AD55168084AC1F34041921E01
:10084000515C054A5043B0FBF1F0704704494843FE
:10085000704700000010024000127A00860F000866
:1008600000093D002DE9F84F040070D02078C04DFC
:10087000C00749D06868C0F38100012807D06868C4
:10088000C0F38100022809D16868C00306D5286832
:10089000800339D560680028E7D035E06068B0F59E
:1008A000803F0BD010B1B0F5A02F11D0286820F4F4
:1008B00080302860286820F4802002E0286840F416
:1008C00080302860606890B1FFF71CFE06460AE0A1
:1008D000286840F480202860F0E700BFFFF712FE90
:1008E000801B642873D828688003F7D50CE0FFF7D5
:1008F00009FE064605E000BFFFF704FE801B6428E2
:10090000F0D828688003F7D420789A4E80074FF0FB
:1009100001094FF0000839D5686810F00C0F07D0B6
:100920006868C0F38100022809D16868C00306D452
:100930002868800714D52069012808D110E02069B3
:10094000B0B1C6F80090FFF7DDFD074605E00AE10B
:10095000FFF7D8FDC01B0228C4D828688007F7D548
:100960002868616920F0F80040EAC10028600DE0C5
:10097000C6F80080FFF7C6FD074604E0FFF7C2FD9A
:10098000C01B022823D828688007F7D420780007E6
:100990002CD57948A169D9B1C0F80090FFF7B2FD14
:1009A000074604E0FFF7AEFDC01B02280FD8686AB7
:1009B0008007F7D571484FF4FA510068B0FBF1F0A9
:1009C000009000BF0098411E0091FAD20EE080E036
:1009D000C0F80080FFF796FD074604E0FFF792FDA0
:1009E000C01B022875D8686A8007F7D420784007B2
:1009F00060D5E8690027C00008D4E86940F080505D
:100A0000E861E869012700F0805000905C480168C7
:100A1000C90513D40168834641F480710160FFF772
:100A200071FD824606E000BFFFF76CFDA0EB0A00F7
:100A300064284ED8DBF80000C005F5D5E068012831
:100A40000AD008B1052813D0286A20F001002862D6
:100A5000286A20F0040002E0286A40F001002862C1
:100A6000E06841F2883B98B1FFF74CFD82460BE00D
:100A7000286A40F004002862EEE700BFFFF742FD5D
:100A8000A0EB0A0159455AD8286A8007F6D50CE030
:100A9000FFF738FD824605E0FFF734FDA0EB0A01C1
:100AA00059454CD8286A8007F6D41FB1E86920F070
:100AB0008050E861E06988B36968C1F38101022967
:100AC00044D00228C6F8608004D0FFF71BFD04461E
:100AD00038E034E0FFF716FD074604E0FFF712FDAB
:100AE000C01B02282BD828688001F7D4206AB0F5F3
:100AF000803F05D16868A16820F400300843686031
:100B0000D4E908010843696821F474110843686056
:100B1000C6F86090FFF7F6FC044606E025E000BF4B
:100B2000FFF7F0FC001B022809D828688001F7D5E0
:100B30001BE000BFFFF7E6FC001B022802D90320E0
:100B4000BDE8F88F28688001F4D40EE00128F7D0C2
:100B50006868226A00F48031914204D1616A00F42D
:100B60007010884201D00120EAE70020E8E7000089
:100B70000010024000004242800442420C0000206B
:100B8000007000407047704710B5040003D094F81F
:100B90003D0010B107E0012010BD002084F83C00AA
:100BA000204600F01EF8022084F83D00211D206838
:100BB00000F07CF9012084F8460084F83E0084F8B7
:100BC0003F0084F8400084F8410084F8420084F833
:100BD000430084F8440084F8450084F83D00002078
:100BE00010BD704790F83D10012901D001207047D9
:100BF000022180F83D100168CA6842F00102CA6013
:100C000000680E4988420ED00D4988420BD0B0F1E1
:100C1000804F08D00B49884205D00B49884202D04A
:100C20000A49884204D1816801F00701062903D0EE
:100C3000016841F00101016000207047002C014073
:100C4000003401400004004000080040000C004057
:100C5000704770B50446006801694FF00005C9434C
:100C6000890715D4C168C943890711D4E91E0161F8
:100C700001202077206880698007204602D0FFF796
:100C8000E7FF04E000F098F8204600F096F825779A
:100C900020680169C943490717D4C168C943490796
:100CA00013D46FF00401016102202077206880696D
:100CB00010F4407F204602D0FFF7CAFF04E000F0A6
:100CC0007BF8204600F079F8257720680169C94350
:100CD000090716D4C168C943090712D46FF0080187
:100CE0000161042020772068C0698007204602D077
:100CF000FFF7AEFF04E000F05FF8204600F05DF87B
:100D0000257720680169C943C90617D4C168C9435A
:100D1000C90613D46FF01001016108202077206804
:100D2000C06910F4407F204602D0FFF791FF04E035
:100D300000F042F8204600F040F82577206801696D
:100D4000C943C90708D1C168C943C90704D1891E6D
:100D50000161204600F032F820680169C9430906A4
:100D600009D4C168C943090605D46FF08001016147
:100D70002046FFF707FF20680169C943490609D4E7
:100D8000C168C943490605D46FF04001016120469E
:100D900000F01EF820680169C94389060BD4C168B8
:100DA000C943890607D46FF0200101612046BDE8E0
:100DB0007040FFF7E8BE70BD704770470068034998
:100DC000884201D1FFF7A4BB70470000002C01400E
:100DD0007047FEE730B585B00025124C02950395AB
:100DE000A06940F01000A061A069694600F0100001
:100DF0000490802000900C4801900C48FFF77EFA88
:100E0000A06940F00800A061A069694600F00800F0
:100E1000049001200090CDE901050548FFF76EFA26
:100E200005B030BD0010024000001110001001405C
:100E3000000C0140FEE7FEE770477047704730B591
:100E40008FB028216846FFF7E1F914210AA8FFF7BF
:100E5000DDF901210804CDE90010002402940225E7
:100E60000491CDE907504FF4E01009906846FFF770
:100E7000F9FC08B172B6FEE70F20CDE90A054FF480
:100E80008060CDE90C4002210AA80E94FFF7FEFB1A
:100E9000002801D072B6FEE70FB030BD70470000E9
:100EA0000148FFF7D6BE000010000020F0B5026830
:100EB0001C4B1D4D1D4E1E4F1E4C4FF0804C98423A
:100EC00009D0A04207D0604505D0A84203D0B04267
:100ED00001D0B84204D122F0700E4A6842EA0E02F4
:100EE000984209D0A04207D0604505D0A84203D05F
:100EF000B04201D0B84203D122F44075CA682A43F7
:100F00004D6922F080022A4302608A68C2620A6840
:100F10008262984201D0A04201D109690163012196
:100F20004161F0BD002C0140000400400008004079
:100F3000000C004000340140FEE70907090E0028BC
:100F400004DB00F1E02080F80014704700F00F008F
:100F500000F1E02080F8141D70470000FFF7E0FA70
:100F6000FFF76DFFFFF736FF054C4FF47A75202130
:100F70002046FFF7BFFA2846FFF7AEF9F7E7000073
:100F800000080140010202030405060708090A0BD4
:100F90000C0D0E0F101000000000000000000102F8
:100FA0000304060708090000000001020304000012
:100FB000D00F000800000020100000006C010008A5
:100FC000E00F000810000020A806000088010008BB
:100FD0000100000010000000000000000024F400E8
:0400000508000131BD
:00000001FF
